:020000040800F2
:10000000003000206D3E0008491200084B12000825
:100010004D1200084F1200085112000800000000A5
:100020000000000000000000000000005312000863
:10003000551200080000000057120008591200086D
:10004000BD3E0008BD3E0008BD3E0008BD3E0008A4
:10005000BD3E0008BD3E0008BD3E0008BD3E000894
:10006000BD3E0008BD3E0008BD3E0008BD3E000884
:10007000BD3E0008BD3E0008BD3E0008BD3E000874
:10008000BD3E0008BD3E0008BD3E0008BD3E000864
:1000900061120008BD3E0008BD3E0008BD3E0008DC
:1000A000BD3E0008BD3E0008BD3E0008BD3E000844
:1000B000BD3E0008BD3E000800000000BD3E000837
:1000C000BD3E00080000000000000000BD3E00082A
:1000D00000000000BD3E0008BD3E0008BD3E000817
:1000E000BD3E0008BD3E000800000000000000000A
:1000F0000000000000000000000000000000000000
:1001000000000000000000000000000000000000EF
:10011000000000000000000071120008BD3E000851
:1001200000000000000000000000000000000000CF
:1001300000000000000000000000000000000000BF
:10014000BD3E0008BD3E00080000000000000000A9
:10015000000000000000000000000000000000009F
:10016000000000000000000000000000000000008F
:10017000000000000000000000000000000000007F
:0801800000000000BD3E000874
:1001900000F1340191E838009C46A6464CF8045D15
:1001A00090E8FF0FE54600BD90EC210B704700BFC3
:1001B00080EC210B704700BF90EC200B704700BF14
:1001C00080EC200B704700BFD0EC200B704700BFC5
:1001D000C0EC200B704700BFF0EC0201F0EC021104
:1001E000F0EC0221F0EC0231F0EC0241F0EC0251B3
:1001F000F0EC0261F0EC0271F0EC0281F0EC0291A3
:10020000F0EC02A1F0EC02B1F0EC02C1F0EC02D192
:10021000F0EC02E1F0EC02F1704700BFE0EC02010B
:10022000E0EC0211E0EC0221E0EC0231E0EC0241F2
:10023000E0EC0251E0EC0261E0EC0271E0EC0281E2
:10024000E0EC0291E0EC02A1E0EC02B1E0EC02C1D2
:10025000E0EC02D1E0EC02E1E0EC02F1704700BF1B
:10026000B0FC0181B0FC0191B0FC01A1B0FC01B176
:10027000704700BFA0FC0181A0FC0191A0FC01A17E
:10028000A0FC01B1704700BFEC4600B52DE900505D
:100290002DE9FF1F4FF000032DE90C0001A903F029
:1002A0006DFFDDF840E012B0704700BFEC4600B5CE
:1002B0002DE900502DE9FF1F4FF000032DE90C0040
:1002C00001A903F099FFDDF840E012B0704700BFCC
:1002D000EC4600B52DE900502DE9FF1F4FF000035B
:1002E0002DE90C0001A903F0A9FFDDF840E012B0F0
:1002F000704700BFEC4600B52DE900502DE9FF1F07
:100300004FF000032DE90C0001AB03F06DFFDDF8A9
:1003100040E012B0704700BFEC4600B52DE9005038
:100320002DE9FF1F4FF000032DE90C0001AA03F097
:10033000E1FFDDF840E012B0704700BF10F8012B7C
:1003400011F8013B012A28BF9A42F7D0D01A704712
:1003500001F0FF01102A2BDB10F0070F08D010F876
:10036000013B013A8B422DD010F0070F42B3F6D17A
:10037000F0B441EA012141EA014122F007047FF093
:1003800000070023F0E80256083C85EA010586EAEA
:10039000010685FA47F5A3FA87F586FA47F6A5FA26
:1003A00087F68EB9EED1F0BC01F0FF0102F0070232
:1003B00032B110F8013B013A83EA010313B1F8D1DD
:1003C0000020704701387047002D06BF35460338BE
:1003D000073815F0010F07D1013015F4807F02BFF7
:1003E000013015F4C03F0130F0BC0138704700BF48
:1003F000034613F8012B002AFBD1181A0138704765
:1004000081F0004102E000BF83F0004330B54FEAC5
:1004100041044FEA430594EA050F08BF90EA020F32
:100420001FBF54EA000C55EA020C7FEA645C7FEAC5
:10043000655C00F0E2804FEA5454D4EB5555B8BFE8
:100440006D420CDD2C4480EA020281EA030382EA59
:10045000000083EA010180EA020281EA0303362DEB
:1004600088BF30BD11F0004F4FEA01314FF4801CBE
:100470004CEA113102D0404261EB410113F0004FD0
:100480004FEA03334CEA133302D0524263EB430387
:1004900094EA050F00F0A780A4F10104D5F1200E25
:1004A0000DDB02FA0EFC22FA05F2801841F1000180
:1004B00003FA0EF2801843FA05F359410EE0A5F154
:1004C00020050EF1200E012A03FA0EFC28BF4CF085
:1004D000020C43FA05F3C01851EBE37101F000453B
:1004E00007D54FF0000EDCF1000C7EEB00006EEB48
:1004F0000101B1F5801F1BD3B1F5001F0CD34908D2
:100500005FEA30004FEA3C0C04F101044FEA445228
:1005100012F5800F80F09A80BCF1004F08BF5FEAAF
:10052000500C50F1000041EB045141EA050130BD8F
:100530005FEA4C0C404141EB0101013C28BFB1F5A1
:10054000801FE9D291F0000F04BF01460020B1FAEC
:1005500081F308BF2033A3F10B03B3F120020CDABF
:100560000C3208DD02F1140CC2F10C0201FA0CF09D
:1005700021FA02F10CE002F11402D8BFC2F1200C02
:1005800001FA02F120FA0CFCDCBF41EA0C019040B8
:10059000E41AA2BF01EB0451294330BD6FEA040401
:1005A0001F3C1CDA0C340EDC04F11404C4F12002EC
:1005B00020FA04F001FA02F340EA030021FA04F3FE
:1005C00045EA030130BDC4F10C04C4F1200220FA55
:1005D00002F001FA04F340EA0300294630BD21FA93
:1005E00004F0294630BD94F0000F83F4801306BF59
:1005F00081F480110134013D4EE77FEA645C18BF4D
:100600007FEA655C29D094EA050F08BF90EA020FE3
:1006100005D054EA000C04BF1946104630BD91EADB
:10062000030F1EBF0021002030BD5FEA545C05D1DE
:100630004000494128BF41F0004130BD14F580041D
:100640003CBF01F5801130BD01F0004545F0FE4191
:1006500041F470014FF0000030BD7FEA645C1ABFC6
:10066000194610467FEA655C1CBF0B46024650EAFD
:10067000013406BF52EA033591EA030F41F4002129
:1006800030BD00BF90F0000F04BF0021704730B5AF
:100690004FF4806404F132044FF000054FF0000184
:1006A00050E700BF90F0000F04BF0021704730B545
:1006B0004FF4806404F1320410F0004548BF40421A
:1006C0004FF000013EE700BF42004FEAE2014FEA6F
:1006D00031014FEA02701FBF12F07F4393F07F4F4A
:1006E00081F06051704732F07F4208BF704793F04D
:1006F0007F4F04BF41F40021704730B54FF4607460
:1007000001F0004521F000411CE700BF50EA010262
:1007100008BF704730B54FF000050AE050EA01020B
:1007200008BF704730B511F0004502D5404261EB7B
:1007300041014FF4806404F132045FEA915C3FF4BC
:10074000D8AE4FF003025FEADC0C18BF03325FEA59
:10075000DC0C18BF033202EBDC02C2F1200300FA0A
:1007600003FC20FA02F001FA03FE40EA0E0021FA2F
:1007700002F11444BDE600BF70B54FF0FF0C4CF41D
:10078000E06C1CEA11541DBF1CEA135594EA0C0FCF
:1007900095EA0C0F00F0DEF82C4481EA030621EA0A
:1007A0004C5123EA4C5350EA013518BF52EA033545
:1007B00041F4801143F4801338D0A0FB02CE4FF0F7
:1007C0000005E1FB02E506F00042E0FB03E54FF027
:1007D0000006E1FB03569CF0000F18BF4EF0010E1F
:1007E000A4F1FF04B6F5007F64F5407404D25FEA1B
:1007F0004E0E6D4146EB060642EAC62141EA5551CE
:100800004FEAC52040EA5E504FEACE2EB4F1FD0C0F
:1008100088BFBCF5E06F1ED8BEF1004F08BF5FEA8D
:10082000500E50F1000041EB045170BD06F000463F
:1008300046EA010140EA020081EA0301B4EB5C04EC
:10084000C2BFD4EB0C0541EA045170BD41F48011E4
:100850004FF0000E013C00F3AB8014F1360FDEBF09
:10086000002001F0004170BDC4F10004203C35DAE5
:100870000C341BDC04F11404C4F1200500FA05F368
:1008800020FA04F001FA05F240EA020001F0004209
:1008900021F0004110EBD37021FA04F642EB06017F
:1008A0005EEA430E08BF20EAD37070BDC4F10C04A9
:1008B000C4F1200500FA04F320FA05F001FA04F26D
:1008C00040EA020001F0004110EBD37041F1000159
:1008D0005EEA430E08BF20EAD37070BDC4F1200564
:1008E00000FA05F24EEA020E20FA04F301FA05F2CC
:1008F00043EA020321FA04F001F0004121FA04F274
:1009000020EA020000EBD3705EEA430E08BF20EA43
:10091000D37070BD94F0000F0FD101F0004640007D
:1009200041EB010111F4801F08BF013CF7D041EAFF
:10093000060195F0000F18BF704703F00046520003
:1009400043EB030313F4801F08BF013DF7D043EAD4
:100950000603704794EA0C0F0CEA135518BF95EA8A
:100960000C0F0CD050EA410618BF52EA4306D1D111
:1009700081EA030101F000414FF0000070BD50EA30
:10098000410606BF1046194652EA430619D094EABA
:100990000C0F02D150EA013613D195EA0C0F05D1A4
:1009A00052EA03361CBF104619460AD181EA0301F8
:1009B00001F0004141F0FE4141F470014FF00000B0
:1009C00070BD41F0FE4141F4780170BD70B54FF04B
:1009D000FF0C4CF4E06C1CEA11541DBF1CEA1355CB
:1009E00094EA0C0F95EA0C0F00F0A7F8A4EB0504AD
:1009F00081EA030E52EA03354FEA013100F08880A4
:100A00004FEA03334FF0805545EA131343EA12636C
:100A10004FEA022245EA111545EA10654FEA002621
:100A20000EF000419D4208BF964244F1FD0404F5DA
:100A3000407402D25B084FEA3202B61A65EB030536
:100A40005B084FEA32024FF480104FF4002CB6EBF3
:100A5000020E75EB030E22BFB61A754640EA0C0073
:100A60005B084FEA3202B6EB020E75EB030E22BFB3
:100A7000B61A754640EA5C005B084FEA3202B6EBF4
:100A8000020E75EB030E22BFB61A754640EA9C00B3
:100A90005B084FEA3202B6EB020E75EB030E22BF83
:100AA000B61A754640EADC0055EA060E18D04FEA41
:100AB000051545EA16754FEA06164FEAC30343EAE1
:100AC00052734FEAC2025FEA1C1CC0D111F4801FAE
:100AD0000BD141EA00014FF000004FF0004CB6E7A7
:100AE00011F4801F04BF01430020B4F1FD0C88BF46
:100AF000BCF5E06F3FF6AFAEB5EB030C04BFB6EB51
:100B0000020C5FEA500C50F1000041EB045170BD43
:100B10000EF0004E4EEA113114EB5C04C2BFD4EB70
:100B20000C0541EA045170BD41F480114FF0000EF4
:100B3000013C90E645EA060E8DE60CEA135594EA70
:100B40000C0F08BF95EA0C0F3FF43BAF94EA0C0F73
:100B50000AD150EA01347FF434AF95EA0C0F7FF4E8
:100B600025AF104619462CE795EA0C0F06D152EA3C
:100B700003353FF4FDAE1046194622E750EA410620
:100B800018BF52EA43067FF4C5AE50EA41047FF431
:100B90000DAF52EA43057FF4EBAE12E74FF0FF3C96
:100BA00006E000BF4FF0010C02E000BF4FF0010C67
:100BB0004DF804CD4FEA410C7FEA6C5C4FEA430CE0
:100BC00018BF7FEA6C5C1BD001B050EA410C0CBF2F
:100BD00052EA430C91EA030F02BF90EA020F002091
:100BE000704710F1000F91EA030F58BF994208BFF8
:100BF00090422CBFD8176FEAE37040F001007047B5
:100C00004FEA410C7FEA6C5C02D150EA013C07D10B
:100C10004FEA430C7FEA6C5CD6D152EA033CD3D056
:100C20005DF8040B704700BF8446104662468C4650
:100C30001946634600E000BF01B5FFF7B7FF002883
:100C400048BF10F1000F01BD4DF808EDFFF7F4FFAC
:100C50000CBF012000205DF808FB00BF4DF808ED37
:100C6000FFF7EAFF34BF012000205DF808FB00BF5A
:100C70004DF808EDFFF7E0FF94BF012000205DF87C
:100C800008FB00BF4DF808EDFFF7CEFF94BF012031
:100C900000205DF808FB00BF4DF808EDFFF7C4FF2A
:100CA00034BF012000205DF808FB00BF4FEA410C73
:100CB0007FEA6C5C02D150EA013C0AD14FEA430C56
:100CC0007FEA6C5C02D152EA033C02D14FF0000093
:100CD00070474FF0010070474FEA410212F50012D1
:100CE00015D211D56FF47873B3EB625212D94FEA73
:100CF000C12343F0004343EA505311F0004F23FA5D
:100D000002F018BF404270474FF00000704750EAB1
:100D1000013005D111F0004008BF6FF0004070476E
:100D20004FF00000704700BF0348044B834202D0DD
:100D3000034B03B118477047FC010020FC01002061
:100D4000000000000548064B1B1AD90F01EBA30158
:100D5000491002D0034B03B118477047FC01002033
:100D6000FC0100200000000010B5064C237843B9B8
:100D7000FFF7DAFF044B13B10448AFF300800123FF
:100D8000237010BDFC01002000000000E47C00087E
:100D900008B5054B1BB105490548AFF30080BDE818
:100DA0000840FFF7CFBF00BF000000000002002096
:100DB000E47C00082DE9F04188B003AD00240394E1
:100DC00004940594069407942D4B5A6942F48002CA
:100DD0005A615A6902F480020092009A5A6942F4F8
:100DE00000325A615A6902F400320192019A5A693A
:100DF00042F480225A615B6903F480230293029BD0
:100E0000DFF8848022460221404601F06AFC224637
:100E1000FC214FF0904001F064FC0226039601276C
:100E20000497059406942946404601F075FBFC237F
:100E3000039304970594069429464FF0904001F0DF
:100E40006BFB4FF4806303930494059429464FF0A1
:100E5000904001F061FB4FF4004303930494059626
:100E600029464FF0904001F057FB38230393049438
:100E700005962946034801F04FFB08B0BDE8F08114
:100E800000100240000400480014004808B50D4856
:100E90000D4B03600223436000238360C3604FF463
:100EA000402202614FF480124261037643768376DA
:100EB000C3760377437700F0FBF900B908BD02F071
:100EC00031FCFBE7180200200064004000B589B047
:100ED0000023039304930593069307930268184B2A
:100EE0009A4202D009B05DF804FB03F5D633DA6903
:100EF00042F00072DA61DA6902F000720192019A3E
:100F00005A6942F400325A615B6903F40033029378
:100F1000029B4FF4C05303930223049303230693CD
:100F20000923079303A94FF0904001F0F5FA00223E
:100F30001146142001F02AFC142001F037FCD1E7FF
:100F40000064004010B58CB003AC24220021204680
:100F500005F020F800230093019302931248134AEE
:100F60000260436083604FF6FF72C26003614361B9
:100F7000836103230393012305930993214601F021
:100F8000FBFE50B900230093019302936946064883
:100F900002F038F920B90CB010BD02F0C3FBF1E744
:100FA00002F0C0FBF7E700BFD8020020002C014090
:100FB00000B585B000230193029303930E480F4AB6
:100FC00002603F224260836040F2E732C260836188
:100FD00001F072FE50B900230193039301A9064862
:100FE00002F010F928B905B05DF804FB02F09AFB95
:100FF000F1E702F097FBF6E7400200200010004006
:1010000000B589B0002303930493059306930793D7
:101010000268134B9A4202D009B05DF804FB03F555
:1010200064439A6942F400629A619A6902F4006228
:101030000192019A5A6942F400325A615B6903F4E1
:1010400000330293029B4FF44073039302230493F3
:101050000623079303A94FF0904001F05DFADBE708
:10106000002C01400368B3F1804F00D0704782B07C
:1010700003F50433DA6942F00102DA61DB6903F057
:1010800001030193019B02B07047000002680E4B00
:101090009A4200D0704700B583B003F50033DA6997
:1010A00042F01002DA61DB6903F010030193019B47
:1010B00000221146362001F069FB362001F076FB54
:1010C00003B05DF804FB00BF0010004000B587B01E
:1010D0000023019302930393049305930368B3F1F0
:1010E000804F02D007B05DF804FB03F504335A6962
:1010F00042F400325A615B6903F400330093009BB1
:1011000003230193022302930123059301A94FF0C6
:10111000904001F001FAE5E700B58BB0002307939A
:101120000893099300930193029303930493059307
:1011300006931C484FF0804202604360836040F693
:101140007F42C2600361836101F0E6FDF0B90023D4
:101150000793099307A9134802F054F8C8B960230C
:101160000093002201920292049269460D4801F018
:1011700099FE88B9042269460A4801F093FE70B9C5
:101180000848FFF7A3FF0BB05DF804FB02F0CAFAB2
:10119000DDE702F0C7FAE2E702F0C4FAEAE702F09C
:1011A000C1FAEDE78C02002008B50B480B4B036039
:1011B0004FF4E133436000238360C36003610C227A
:1011C00042618361C3610362436202F04CFA00B979
:1011D00008BD02F0A7FAFBE7240300200038014015
:1011E00000B589B0002303930493059306930793F6
:1011F0000268134B9A4202D009B05DF804FB03F574
:1012000058439A6942F480429A619A6902F4804292
:101210000192019A5A6942F480225A615B6903F48F
:1012200080230293029BC02303930223049303238E
:1012300006930723079303A9024801F06DF9DBE742
:101240000038014000040048FEE7FEE7FEE7FEE745
:10125000FEE770477047704708B500F029FC08BDED
:1012600008B5024800F0C3FA08BD00BF180200200C
:1012700008B5024801F012FC08BD00BF4002002082
:1012800082B00A4B9A6942F001029A619A6902F0AF
:1012900001020092009ADA6942F08052DA61DB6959
:1012A00003F080530193019B02B07047001002408D
:1012B000002800F0A18038B5044690F82030D3B162
:1012C0002268136843F00103136000F0FDFB05463C
:1012D00023685A6812F0010F10D100F0F5FB401B93
:1012E0000A28F5D9636A43F400336362052384F85E
:1012F0002030012038BDFFF7E9FDE1E71A6822F050
:1013000002021A6000F0E0FB054623685A6812F0FA
:10131000020F0DD000F0D8FB401B0A28F5D9636AF4
:1013200043F400336362052384F820300120E1E7B1
:10133000227E012A3DD01A6822F080021A60637E64
:10134000012B3BD02268136823F040031360A37E77
:10135000012B39D02268136823F020031360E37E49
:10136000012B37D02268136843F010031360237FEA
:10137000012B35D02268136823F008031360637FC4
:10138000012B33D02268136823F004031360A36891
:10139000E268134322691343626913436268013AA6
:1013A00021681343CB6100206062012384F8203060
:1013B000A0E71A6842F080021A60C0E7226813684A
:1013C00043F040031360C2E72268136843F0200330
:1013D0001360C4E72268136823F010031360C6E7A4
:1013E0002268136843F008031360C8E72268136893
:1013F00043F004031360CAE701207047026890F8C5
:101400002030013BDBB2012B05D9436A43F4802332
:1014100043620120704730B4D2F8003243F0010338
:10142000C2F800324B6903F01F03012000FA03F3F6
:10143000D2F81C026FEA030C20EA0300C2F81C0277
:10144000C869B0B9D2F80C020CEA0000C2F80C026C
:101450008C884869CD6844EA0544483042F83040F9
:101460000C8848698D6844EA0544483002EBC000A6
:101470004460C86901281BD0886980BBD2F8040287
:101480000CEA0000C2F80402086970BBD2F814022A
:101490000CEA0000C2F81402096A01292BD0D2F824
:1014A000003223F00103C2F80032002030BC704744
:1014B000D2F80C021843C2F80C028C8848690D68F7
:1014C00044EA0544483042F830408C8948698D68C8
:1014D00044EA0544483002EBC0004460CCE7D2F84F
:1014E00004021843C2F80402CEE7D2F814021843EB
:1014F000C2F81402D0E7D2F81C120B43C2F81C3217
:10150000CDE770B5044690F82030012B06D0436A31
:1015100043F4002343620126304670BDDEB202234D
:1015200080F820300268136823F00103136000F094
:10153000CBFA054623685B6813F0010F0CD000F06E
:10154000C3FA431B0A2BF5D9636A43F40033636281
:10155000052384F82030DFE700266662DCE730B53B
:1015600090F820C00468A4680CF1FF3C5FFA8CFC82
:10157000BCF1010F62D814F0E05F59D0C4F3016CE4
:10158000012404FA0CF41C608B68002B3DD10D681B
:10159000CB68046843EA45550CF118031B01E5507C
:1015A00003680C690CF1180E03EB0E135C600B7DE5
:1015B000012B35D0D17993791B0443EA016351792A
:1015C00043EA012314790168234301EB0C11C1F8AC
:1015D0008C31D17893781B0443EA0163517843EA54
:1015E0000123117802680B4302EB0C12C2F8883118
:1015F00002680CF1180C4FEA0C1C52F80C3043F046
:10160000010342F80C3000201DE04C6843EAC4039B
:10161000CC6823430CF11804240105682B51BFE763
:10162000036803EB0E13596841F480715960C1E7F8
:10163000436A43F400134362012004E0436A43F425
:1016400080234362012030BD90F820C00CF1FF3CA4
:101650005FFA8CFCBCF1010F00F2A58030B451B9E7
:101660000468E46814F0030F10D1436A43F40013D4
:10167000436201207EE00468246914F0030F05D161
:10168000436A43F400134362012073E0056801F1EB
:101690001B0424012C5904F004049460002C6BD129
:1016A000056801F11B0424012C59640D14600468C1
:1016B00001F11B0C4FEA0C1C54F80C4004F002041E
:1016C000D4600468A444DCF8045015F0080F5BD023
:1016D00008241461046801F11B0C04EB0C14646809
:1016E000C4F307249461046804EB0C146468240CAC
:1016F0005461026802EB0112D2F8B8211A70026834
:1017000002EB0112D2F8B821C2F307225A70026824
:1017100002EB0112D2F8B821C2F307429A700268B4
:1017200002EB0112D2F8B821120EDA70026802EB55
:101730000112D2F8BC211A71026802EB0112D2F830
:10174000BC21C2F307225A71026802EB0112D2F8DF
:10175000BC21C2F307429A71026802EB0112D2F86F
:10176000BC21120EDA71C1B90268D36843F02003BC
:10177000D360002030BC7047056801F11B042401D0
:101780002C59E408546092E701F11B0504EB0514A1
:10179000646804F00F0414619CE70268136943F065
:1017A00020031361E5E7436A43F480234362012089
:1017B000704790F82030013BDBB2012B05D9436A1A
:1017C00043F48023436201207047026853690B434E
:1017D00053610020704770477047704770477047EB
:1017E00070477047704770477047704770472DE9E2
:1017F000F84F054603685C69D3F804809F68D3F806
:101800000CA0D3F81090D3F818B014F001063BD018
:1018100017F0010616D001229A6017F0020F08D1C6
:1018200017F0040F0CD117F0080606D04FF48056BD
:1018300008E0FFF7D0FF002604E0FFF7CFFF01E04C
:101840004FF4006617F4807F0DD02B684FF4807240
:101850009A6017F4007F40F0968017F4806F00F0D4
:10186000968046F4005617F4803F0DD02B684FF455
:1018700080329A6017F4003F40F0938017F4802F75
:1018800000F0938046F4004614F0080F07D01AF0D9
:10189000100F04D046F400762B681022DA6014F0A2
:1018A000040F03D01AF0080F40F0898014F0020FE3
:1018B00005D02B68DB6813F0030F40F0878014F02D
:1018C000400F07D019F0100F04D046F480662B6843
:1018D00010221A6114F0200F02D019F0080F79D1EC
:1018E00014F0100F04D02B681B6913F0030F78D18C
:1018F00014F4003F02D018F0100F76D114F4803F9A
:1019000002D018F0080F77D114F4004F37D018F038
:10191000040F31D014F4807F04D01BF0010F01D0EC
:1019200046F0010614F4007F04D01BF0020F01D032
:1019300046F0020614F4806F04D01BF0040F01D0AF
:1019400046F0040614F4006F16D01BF0700B13D091
:10195000BBF1400F66D056D8BBF1200F5CD0BBF175
:10196000300F5CD0BBF1100F01D146F008062A6899
:10197000936923F0700393612B6804225A60002E50
:1019800056D1BDE8F88F2846FFF726FF6BE717F41E
:10199000006F02D046F4804665E72846FFF71FFF38
:1019A00061E72846FFF719FF6EE717F4002F02D012
:1019B00046F4803668E72846FFF712FF64E72B6895
:1019C0000822DA602846FFF70CFF6FE7284601F08F
:1019D00093FE74E72B6808221A612846FFF703FF7D
:1019E0007EE72846FFF7FEFE82E72B6810225A604A
:1019F0002846FFF7F9FE81E72B6808225A6028463F
:101A0000FFF7F3FE80E7BBF1500F0ED0BBF1600F84
:101A1000ADD146F48076AAE746F01006A7E746F077
:101A20002006A4E746F04006A1E746F080069EE7C0
:101A30006B6A33436B622846FFF7D8FEA1E70000CC
:101A400010B504460E4B1A784FF47A73B3FBF2F3D9
:101A50000C4A1068B0FBF3F000F0B6FE68B90F2C2A
:101A600001D901200AE0002221464FF0FF3000F0AA
:101A70008DFE054B1C60002000E0012010BD00BF62
:101A800000000020080000200400002008B5074ADC
:101A9000136843F010031360032000F065FE0F206D
:101AA000FFF7CEFFFFF7ECFB002008BD002002404F
:101AB000034A1168034B1B780B441360704700BF47
:101AC000AC03002000000020014B1868704700BFE5
:101AD000AC03002038B50446FFF7F6FF0546B4F125
:101AE000FF3F02D0044B1B781C44FFF7EDFF401B67
:101AF000A042FAD338BD00BF00000020002800F04B
:101B0000FF8270B582B00446036813F0010F3BD02A
:101B1000B44B5B6803F00C03042B1ED0B14B5B6825
:101B200003F00C03082B13D06368B3F5803F68D033
:101B3000002B40F0928003F1804303F504331A68D0
:101B400022F480321A601A6822F480221A605DE062
:101B5000A44B5B6813F4803FE6D04FF4003393FA54
:101B6000A3F3A04B19684FF4003393FAA3F3B3FA2D
:101B700083F303F01F03012202FA03F30B4203D0A5
:101B80006368002B00F0BE82236813F0020F00F0A0
:101B9000C480944B5B6813F00C0F00F09C80914B59
:101BA0005B6803F00C03082B00F08F802369002B87
:101BB00000F0F080012292FAA2F3B3FA83F303F16A
:101BC000845303F584139B001A60FFF77DFF0546DD
:101BD000022393FAA3F3834B1968022393FAA3F326
:101BE000B3FA83F303F01F03012202FA03F30B425B
:101BF00040F0C280FFF768FF401B0228E8D90320AD
:101C000089E2784A136843F480331360754AD36AD3
:101C100023F00F03A1680B43D3626368002B36D017
:101C2000FFF752FF05464FF4003393FAA3F36D4BD1
:101C300019684FF4003393FAA3F3B3FA83F303F074
:101C40001F03012202FA03F30B429DD1FFF73CFF71
:101C5000401B6428E7D903205DE2B3F5A02F09D02B
:101C6000604B1A6822F480321A601A6822F48022CB
:101C70001A60CBE703F18043A3F53C331A6842F4C2
:101C800080221A601A6842F480321A60BEE7FFF7B9
:101C90001BFF05464FF4003393FAA3F3514B196829
:101CA0004FF4003393FAA3F3B3FA83F303F01F0363
:101CB000012202FA03F30B423FF466AFFFF704FF81
:101CC000401B6428E6D9032025E2464B5B6813F4E9
:101CD000803F7FF46BAF022393FAA3F3414B196863
:101CE000022393FAA3F3B3FA83F303F01F03012251
:101CF00002FA03F30B4203D02369934240F00482BB
:101D00003848036823F0F8036169F82292FAA2F2D6
:101D1000B2FA82F291400B430360236813F0080F7C
:101D200000F08C80A369002B60D0012191FAA1F210
:101D3000B2FA82F22C4B13449B001960FFF7C4FEE9
:101D40000546022393FAA3F293FAA3F293FAA3F2BD
:101D5000244A516A93FAA3F3B3FA83F303F01F03FF
:101D6000012202FA03F30B4268D1FFF7ADFE401BDC
:101D70000228E6D90320CEE11A48036823F0F803CD
:101D80006169F82292FAA2F2B2FA82F291400B4310
:101D90000360C2E7012393FAA3F3B3FA83F303F1D9
:101DA000845303F584139B0000221A60FFF78CFE16
:101DB0000546022393FAA3F30A4B1968022393FA08
:101DC000A3F3B3FA83F303F01F03012202FA03F330
:101DD0000B42A2D0FFF778FE401B0228E9D903206E
:101DE00099E100BF0010024020819010012292FA78
:101DF000A2F2B2FA82F2B74B13449B0000221A609F
:101E0000FFF762FE0546022393FAA3F293FAA3F2C8
:101E100093FAA3F2B04A516A93FAA3F3B3FA83F3A5
:101E200003F01F03012202FA03F30B4206D0FFF76F
:101E30004BFE401B0228E6D903206CE1236813F017
:101E4000040F00F0A980A44BDB6913F0805F20D160
:101E5000A14BDA6942F08052DA61DB6903F080530A
:101E60000193019B01259D4B1B6813F4807F12D0C9
:101E7000E368012B23D073BB03F1804303F50433E4
:101E80001A6A22F001021A621A6A22F004021A6225
:101E90001AE00025E7E7914A136843F48073136062
:101EA000FFF712FE06468D4B1B6813F4807FDFD1CF
:101EB000FFF70AFE801B6428F5D903202BE1864A30
:101EC000136A43F001031362E368002B3CD0FFF771
:101ED000FBFD06462EE0052B09D07F4B1A6A22F047
:101EE00001021A621A6A22F004021A62ECE77A4BC3
:101EF0001A6A42F004021A621A6A42F001021A6275
:101F0000E2E7022393FAA3F3734B596A022393FA8D
:101F1000A3F3B3FA83F303F01F03012202FA03F3DE
:101F2000194238D1FFF7D0FD801B41F28833984227
:101F300000F2EC80022393FAA3F293FAA3F3002BAE
:101F4000DFD0654B196AE1E7FFF7BEFD064618E0F2
:101F5000022393FAA3F3604B596A022393FAA3F383
:101F6000B3FA83F303F01F03012202FA03F31942C9
:101F700011D0FFF7A9FD801B41F28833984200F28F
:101F8000C780022393FAA3F293FAA3F3002BDFD0C6
:101F9000514B196AE1E7B5BBE369002B00F0BA8049
:101FA0004D4A526802F00C02082A00F09980022B78
:101FB0002FD04FF0807393FAA3F3B3FA83F303F1B6
:101FC000845303F584139B0000221A60FFF77CFD05
:101FD00004464FF0007393FAA3F33F4B19684FF098
:101FE000007393FAA3F3B3FA83F303F01F03012200
:101FF00002FA03F319426BD0FFF766FD001B0228BB
:10200000E7D9032087E0344AD36923F08053D361B2
:10201000C2E74FF0807393FAA3F3B3FA83F303F1AB
:10202000845303F584139B0000221A60FFF74CFDD4
:1020300005464FF0007393FAA3F3274B19684FF04E
:10204000007393FAA3F3B3FA83F303F01F0301229F
:1020500002FA03F3194206D0FFF736FD401B0228AF
:10206000E7D9032057E01C494B6823F47413626AD4
:10207000206A024313434B604FF0807393FAA3F33B
:10208000B3FA83F303F1845303F584139B00012215
:102090001A60FFF719FD04464FF0007393FAA3F39B
:1020A0000D4B19684FF0007393FAA3F3B3FA83F35F
:1020B00003F01F03012202FA03F3194206D1FFF7CE
:1020C00003FD001B0228E7D9032024E0002022E0C2
:1020D000002020E02081901000100240007000409D
:1020E000012B1AD0104B5B6803F48031226A9142B5
:1020F00015D103F47013626A934212D100200AE0F2
:1021000001207047012006E0012004E0032002E0E6
:10211000032000E0002002B070BD0120FBE7012099
:10212000F9E70120F7E700BF001002400F4B5B68A2
:1021300003F00C02082A01D00D487047C3F3834214
:102140000C49885C094AD26A02F00F020A498A5C8B
:1021500013F4803F05D0064BB3FBF2F303FB00F012
:102160007047064B03FB00F0704700BF00100240B1
:1021700000127A00107D0008007D000800093D0073
:10218000002800F0BE8070B50D460446614B1B6808
:1021900003F007038B420BD25E4A136823F0070358
:1021A0000B431360136803F007038B4240F0AB80CE
:1021B000236813F0020F06D0574A536823F0F00348
:1021C000A1680B435360236813F0010F5AD0636872
:1021D000012B2DD0022B40D0022292FAA2F24E4ABD
:1021E0001068022292FAA2F2B2FA82F202F01F0200
:1021F000012101FA02F2104200F0878046494A6844
:1022000022F0030213434B60FFF75EFC0646424B8D
:102210005B6803F00C036268B3EB820F32D0FFF708
:1022200053FC801B41F288339842F0D9032067E0C9
:102230004FF4003292FAA2F2374A10684FF400329B
:1022400092FAA2F2B2FA82F202F01F02012101FA1E
:1022500002F20242D2D1012052E04FF0007292FA13
:10226000A2F22D4A10684FF0007292FAA2F2B2FA6E
:1022700082F202F01F02012101FA02F21042BDD1E6
:1022800001203DE0234B1B6803F00703AB420AD952
:10229000204A136823F007032B431360136803F0ED
:1022A0000703AB4233D1236813F0040F06D01A4A58
:1022B000536823F4E063E1680B435360236813F031
:1022C000080F07D0144A536823F46053216943EA86
:1022D000C1035360FFF72AFF0F4B5B6803F0F00365
:1022E000F02292FAA2F2B2FA82F2D3400B4AD35C05
:1022F000D8400B4B18600B4B1868FFF7A1FB002070
:1023000070BD012070470120FAE70120F8E70120A5
:10231000F6E700BF0020024000100240287D0008C0
:102320000800002004000020014B1868704700BF1F
:102330000800002008B5FFF7F7FF074B5B6803F4C0
:10234000E0634FF4E06292FAA2F2B2FA82F2D34072
:10235000024AD35CD84008BD00100240207D00082E
:1023600008B5FFF7E1FF074B5B6803F460534FF4D8
:10237000605292FAA2F2B2FA82F2D340024AD35CDD
:10238000D84008BD00100240207D0008F0B583B0A1
:102390000446036813F4803F44D05C4BDB6913F0C0
:1023A000805F6ED1594BDA6942F08052DA61DB69A5
:1023B00003F080530193019B0125554B1B6813F4D7
:1023C000807F60D0514B1B6A13F4407321D0626848
:1023D00002F440729A421CD04C48016A21F44076C3
:1023E0004FF4803393FAA3F2B2FA82F2494F3A449F
:1023F00092004FF0010CC2F800C093FAA3F3B3FAB5
:1024000083F33B449B0000221A60066211F0010F27
:102410004DD13E4A136A23F4407361680B43136243
:10242000002D6AD1236813F0010F06D0374A136BD1
:1024300023F00303A1680B431363236813F0200FF9
:1024400006D0324A136B23F01003E1680B43136389
:10245000236813F0800F06D02C4AD36A23F4F87354
:1024600021690B43D362236813F4805F4CD0274A61
:10247000136B23F4807361690B431363002003B073
:10248000F0BD002599E7224A136843F48073136076
:10249000FFF71AFB06461E4B1B6813F4807F91D191
:1024A000FFF712FB801B6428F5D90320E7E7FFF74D
:1024B0000BFB064617E0022393FAA3F3134B596A6A
:1024C000022393FAA3F3B3FA83F303F01F03012269
:1024D00002FA03F30B429CD1FFF7F6FA801B41F29C
:1024E000883398420ED8022393FAA3F293FAA3F307
:1024F000002BE0D0054B196AE2E7D36923F0805343
:10250000D3618FE70320BAE70020B8E7001002404C
:102510000070004000819010F0B583B0002362E0AD
:1025200085685E000324B44025EA0405CC68B44005
:102530002C438460456825EA0C054C68C4F30014FC
:102540009C402C4344605FE0DD08083550F825408E
:1025500003F0070C4FEA8C0C4FF00F0E0EFA0CFE36
:1025600024EA0E0E0C6904FA0CF444EA0E0440F856
:10257000254060E0032400E0002404FA0EF42C431C
:102580000CF1020C4F4D45F82C404F4CA568D4433C
:1025900025EA02064F6817F4801F01D042EA0506BB
:1025A000494DAE60ED6804EA05064F6817F4001F58
:1025B00001D042EA0506444DEE606D6804EA050666
:1025C0004F6817F4003F01D042EA05063E4D6E60A9
:1025D0002D682C404E6816F4803F01D042EA050475
:1025E000394A146001330A6832FA03F468D04FF0B4
:1025F000010C0CFA03FC1CEA0202F3D04C6804F054
:102600000304013C012C8BD94C6804F00304032C17
:102610000CD0C4685D004FF0030C0CFA05FC24EAF2
:102620000C0C8C68AC4044EA0C04C4604C6804F0A8
:102630000304022C88D004684FEA430E4FF0030CC9
:102640000CFA0EFC24EA0C0C4C6804F0030404FAA7
:102650000EF444EA0C0404604C6814F4403FC1D00A
:102660001A4CA56945F00105A561A46904F00104AF
:102670000194019C4FEA930C0CF10205114C54F8A3
:10268000255003F0030E4FEA8E0E0F2404FA0EF4C9
:1026900025EA0405B0F1904F3FF46EAF0C4CA04218
:1026A0000AD004F58064A04208D004F58064A042FA
:1026B0003FF460AF052460E701245EE702245CE795
:1026C00003B0F0BD000001400004014000100240D2
:1026D000000400480369194201D00120704700201E
:1026E00070470AB18161704781627047436901EAAE
:1026F000030221EA030141EA0241816170470000BF
:10270000002808DB0901C9B200F1604000F5614012
:1027100080F80013704700F00F000901C9B2014BA7
:102720001954704714ED00E000B500F00700C0F147
:10273000070CBCF1040F28BF4FF0040C031D062B3F
:102740000FD9C31E4FF0FF3E0EFA0CF021EA000134
:1027500099400EFA03FE22EA0E0241EA02005DF8F9
:1027600004FB0023EEE70000074AD36823F4E0638C
:102770001B041B0C000200F4E060034343F0BF6342
:1027800043F40033D360704700ED00E010B5044619
:10279000054BD868C0F30220FFF7C6FF014620466C
:1027A000FFF7AEFF10BD00BF00ED00E0002807DB23
:1027B00000F01F02400901239340024A42F82030F2
:1027C000704700BF00E100E00138B0F1807F0BD21C
:1027D0004FF0E0235861054AF02182F823100020D1
:1027E000986107221A6170470120704700ED00E0F0
:1027F00030B4026A036A23F0010303624468836908
:1028000023F4803323F073030D681D4322F002028A
:102810008B681343184A90420BD002F5A0529042A5
:1028200007D002F58062904203D002F580629042A8
:1028300005D123F00803CA681A4322F004030E4AA4
:1028400090420BD002F5A052904207D002F5806270
:10285000904203D002F58062904205D124F4407486
:102860004A6922438C691443446085614A68426323
:10287000036230BC704700BF002C014030B4036AD3
:10288000026A22F4807202624268C46924F4803CC5
:102890002CF0730C0C6844EA0C0523F400738C686C
:1028A00043EA0423124CA0420BD0124CA0420FD09A
:1028B00004F58064A0420BD004F58064A0420FD1DF
:1028C00006E023F40063CC6843EA042323F4806326
:1028D00022F440524C6942EA04128C6942EA041222
:1028E0004260C5614A68C263036230BC704700BF82
:1028F000002C01400040014030B4026A036A23F416
:10290000805303624468C36923F0807323F4E64371
:102910000D6843EA052322F400528D6842EA05322D
:102920000D4DA8420BD005F5A055A84207D005F5DE
:102930008065A84203D005F58065A84204D124F43F
:1029400080444D6944EA85144460C3614B68036464
:10295000026230BC704700BF002C014030B4036AF3
:10296000026A22F4803202624468426D22F48032AC
:1029700022F070020D682A4323F400338D6843EA85
:1029800005430D4DA8420BD005F5A055A84207D030
:1029900005F58065A84203D005F58065A84204D1FD
:1029A00024F480344D6944EA0524446042654A6851
:1029B0008265036230BC7047002C014030B4026A6B
:1029C000036A23F4801303624468436D23F0807329
:1029D00023F4E0430D6843EA052322F400128D68D6
:1029E00042EA05520D4DA8420BD005F5A055A8426C
:1029F00007D005F58065A84203D005F58065A8429B
:102A000004D124F480244D6944EA8524446043655C
:102A10004B68C365026230BC704700BF002C0140A8
:102A200090F83D30012B2AD1022380F83D30026816
:102A3000D36843F00103D3600368144A934210D073
:102A4000B3F1804F0DD0A2F59432934209D002F534
:102A50009E32934205D01A6842F001021A600020AB
:102A6000704799680A4A0A40062A0AD0B2F5803FA0
:102A700009D01A6842F001021A6000207047012054
:102A80007047002070470020704700BF002C0140B5
:102A900007000100704770477047704770B50446E3
:102AA0000368DE681D6915F0020F10D016F0020FE2
:102AB0000DD06FF002021A610123037703689B694E
:102AC00013F0030F64D0FFF7E6FF0023237715F020
:102AD000040F12D016F0040F0FD023686FF0040219
:102AE0001A610223237723689B6913F4407F55D032
:102AF0002046FFF7D0FF0023237715F0080F12D0F0
:102B000016F0080F0FD023686FF008021A61042333
:102B100023772368DB6913F0030F46D02046FFF7C5
:102B2000BAFF0023237715F0100F12D016F0100F04
:102B30000FD023686FF010021A61082323772368EF
:102B4000DB6913F4407F37D02046FFF7A4FF002352
:102B5000237715F0010F02D016F0010F33D115F0D5
:102B6000800F02D016F0800F35D115F4807F02D08F
:102B700016F0800F37D115F0400F02D016F0400F3D
:102B800039D115F0200F02D016F0200F3BD170BDC7
:102B9000FFF780FF2046FFF77FFF96E72046FFF70D
:102BA00079FF2046FFF778FFA5E72046FFF772FF81
:102BB0002046FFF771FFB4E72046FFF76BFF204682
:102BC000FFF76AFFC3E723686FF001021A6120462E
:102BD00000F09AFDC3E723686FF080021A61204677
:102BE00000F04DFBC1E723686FF480721A61204644
:102BF00000F046FBBFE723686FF040021A612046F1
:102C0000FFF74BFFBDE723686FF020021A612046F3
:102C100000F034FBBBE700000368264A904206D070
:102C2000B0F1804F03D0A2F59432904203D123F04B
:102C300070034A6813431F4A904212D0B0F1804F8C
:102C40000FD0A2F5943290420BD002F59E32904202
:102C500007D002F58062904203D002F58062904274
:102C600003D123F44073CA68134323F080034A69F5
:102C7000134303608B68C3620B6883620D4B9842F9
:102C80000BD003F5A053984207D003F58063984218
:102C900003D003F58063984201D10B6903630123DC
:102CA0004361036913F0010F03D0036923F00103AB
:102CB00003617047002C014060B310B5044690F8E2
:102CC0003D3013B3022384F83D30214651F8040B04
:102CD000FFF7A2FF012384F8483084F83E3084F8DF
:102CE0003F3084F8403084F8413084F8423084F832
:102CF000433084F8443084F8453084F8463084F812
:102D0000473084F83D30002010BD80F83C30FEF79D
:102D1000BDF9D7E70120704760B310B5044690F8BD
:102D20003D3013B3022384F83D30214651F8040BA3
:102D3000FFF772FF012384F8483084F83E3084F8AE
:102D40003F3084F8403084F8413084F8423084F8D1
:102D5000433084F8443084F8453084F8463084F8B1
:102D6000473084F83D30002010BD80F83C30FEF73D
:102D700079F9D7E701207047002853D0F8B50D4600
:102D8000044690F83D30002B47D0022384F83D30B4
:102D90002268936823F4A03323F00703936021464D
:102DA00051F8040BFFF738FF21688B688A690E6AB7
:102DB0002868184322F4407222F00302AB68AF691E
:102DC00043EA0723134323F47C4323F0FC03EA681C
:102DD000EF6942EA07221A432B6A1B032F6943EA71
:102DE0000713134326F0AA066A686D6942EA0512C2
:102DF0003243886021688B6123681A62012384F85A
:102E0000483084F83E3084F83F3084F8443084F809
:102E1000453084F83D300020F8BD80F83C30FEF7A6
:102E2000EFF8B2E70120704730B4036A026A22F07B
:102E3000100202624268846924F0807C2CF4E64C23
:102E40000C684CEA042423F020038D6843EA051340
:102E5000124DA8420BD0124DA8420FD005F5806547
:102E6000A8420BD005F58065A8420FD106E023F0FB
:102E70008003CD6843EA051323F0400322F4406247
:102E80004D6942EA85028D6942EA850242608461A9
:102E90004A688263036230BC704700BF002C014067
:102EA0000040014038B590F83C30012B00F095808F
:102EB00004460D46012380F83C30142A00F2888035
:102EC000DFE802F00B8686861F8686863486868635
:102ED000488686865D86868671000068FFF788FCD6
:102EE0002268936943F0080393612268936923F091
:102EF000040393612268936929690B43936100205D
:102F000067E00068FFF790FF2268936943F400636D
:102F100093612268936923F48063936122689369C3
:102F2000296943EA01239361002052E00068FFF71A
:102F3000A5FC2268D36943F00803D3612268D369F2
:102F400023F00403D3612268D36929690B43D36159
:102F500000203EE00068FFF7CFFC2268D36943F40D
:102F60000063D3612268D36923F48063D36122684C
:102F7000D369296943EA0123D361002029E000686D
:102F8000FFF7ECFC2268536D43F008035365226899
:102F9000536D23F0040353652268536D29690B4375
:102FA0005365002015E00068FFF708FD2268536DA7
:102FB00043F4006353652268536D23F480635365C3
:102FC0002268536D296943EA01235365002000E01C
:102FD0000120002384F83C3038BD0220FCE701F0DA
:102FE0001F014FF0010C0CFA01FC036A23EA0C03E9
:102FF0000362036A8A4013430362704710B50446B4
:10300000102928D8DFE801F0092727270F272727CD
:10301000152727271B272727210090F83E30013B43
:1030200018BF01231CE090F83F30013B18BF01237B
:1030300016E090F84030013B18BF012310E090F8F3
:103040004130013B18BF01230AE090F84230013BB8
:1030500018BF012304E090F84330013B18BF01235F
:10306000002B5ED110291ED8DFE801F0091D1D1DBF
:103070000D1D1D1D111D1D1D151D1D1D19000223DA
:1030800084F83E3012E0022384F83F300EE0022341
:1030900084F840300AE0022384F8413006E002233D
:1030A00084F8423002E0022384F843300122206891
:1030B000FFF795FF23681E4A93420BD002F5A052FA
:1030C000934207D002F58062934203D002F58062FA
:1030D000934203D15A6C42F400425A642368144A62
:1030E000934210D0B3F1804F0DD0A2F594329342A9
:1030F00009D002F59E32934205D01A6842F00102CF
:103100001A6000200EE099680A4A0A40062A0AD08E
:10311000B2F5803F09D01A6842F001021A6000201F
:1031200000E0012010BD0020FCE70020FAE700BF0E
:10313000002C01400700010038B5044690F83E001D
:10314000C0B294F83F3094F84420D2B294F845C00D
:103150000D46B1B9012849D1012A48D1022384F88A
:103160003E3084F844307DB3042D39D00122002153
:103170002068FFF734FF012204212068FFF72FFFAA
:1031800027E0DBB25FFA8CFC042912D0012833D18E
:10319000012B2CD1012A31D1BCF1010F30D10223F6
:1031A00084F83E3084F83F3084F8443084F8453069
:1031B000D9E7012B1CD1BCF1010F1BD1022384F8EC
:1031C0003F3084F84530CEE7012200212068FFF728
:1031D00006FF2268136843F001031360002006E035
:1031E000012204212068FFF7FAFEF2E7012038BD32
:1031F0000120FCE71846FAE70120F8E71846F6E751
:103200001046F4E790F83C20012A33D030B403464E
:10321000012280F83C20022280F83D2000684268AC
:103220008468154DA84220D022F070020D682A4310
:1032300042601A68104882420AD0B2F1804F07D02B
:10324000A0F59430824203D000F59E30824204D132
:1032500024F08004896821439160012283F83D2095
:10326000002083F83C0030BC704722F470024D68A7
:103270002A43D9E702207047002C0140704770476D
:103280007047026852E8003F23F4907342E800312F
:103290000029F6D1026802F1080353E8003F23F049
:1032A0000103083242E800310029F3D1036E012BFB
:1032B00006D02023C0F88030002303668366704761
:1032C000026852E8003F23F0100342E80031002971
:1032D000F6D1EEE710B504468368026913434269EC
:1032E0001343C2691343016808684E4A02401A43F7
:1032F0000A602268536823F44053E1680B4353602B
:10330000A269236A1A4321688B6823F4306313434C
:103310008B602368444A934214D0444A934227D096
:1033200002F5806293421FD01023E069B0F5004F90
:1033300020D0082B6DD8DFE803F04A5D486C606C44
:103340006C6C63003A4B1B6B03F00303032B09D82F
:10335000DFE803F00204060C0023E6E70423E4E7B9
:103360000823E2E71023E0E70023DEE70223DCE79F
:103370000023DAE7082B46D8DFE803F0051F2545D0
:10338000224545450900FEF7D5FF00283DD062687B
:10339000530803EB4003B3FBF2F3A3F110014FF624
:1033A000EF72914233D89AB222F00F02C3F3420374
:1033B00013432268D36000202CE0FEF7D1FFE4E73E
:1033C000FEF7B4FEE1E71B48E1E71A4802E0FEF72A
:1033D000B1FF18B3636800EB5300B0FBF3F0A0F14A
:1033E00010024FF6EF739A421AD8236880B2D86061
:1033F00000200FE0FEF7B4FFEBE7FEF797FEE8E7EB
:103400004FF40040E6E7012004E0002002E0012044
:1034100000E001200023A366E36610BD0020F9E769
:103420000120F7E7F369FFEF003801400044004056
:103430000010024000127A00436A13F0080F06D011
:103440000268536823F40043416B0B435360436AA3
:1034500013F0010F06D00268536823F40033816A29
:103460000B435360436A13F0020F06D0026853689F
:1034700023F48033C16A0B435360436A13F0040F93
:1034800006D00268536823F48023016B0B4353601A
:10349000436A13F0100F06D00268936823F4805338
:1034A000816B0B439360436A13F0200F06D00268D0
:1034B000936823F40053C16B0B439360436A13F08A
:1034C000400F0AD00268536823F48013016C0B4349
:1034D0005360036CB3F5801F0BD0436A13F0800F69
:1034E00006D00268536823F40023816C0B435360B9
:1034F00070470268536823F4C003416C0B43536068
:10350000EBE72DE9F84305460E4617469946DDF8E8
:1035100020802B68DC6936EA04040CBF01240024F7
:10352000BC4236D1B8F1FF3FF3D0FEF7CDFAA0EBA5
:103530000900404530D8B8F1000F2FD02B681A6829
:1035400012F0040FE5D0802EE3D0402EE1D0DA69EE
:1035500012F0080F11D1DA6912F4006FD9D04FF4CC
:1035600000621A622846FFF78CFE2023C5F88430DB
:10357000002385F8783003200CE008241C622846DC
:10358000FFF77FFEC5F88440002385F878300120DE
:1035900000E00020BDE8F8830320FBE70320F9E703
:1035A00030B583B004460023C0F88430FEF78CFAAF
:1035B00005462268126812F0080F0FD123681B68B5
:1035C00013F0040F26D12023E367C4F880300020D5
:1035D0002066606684F8780003B030BD6FF07E43EB
:1035E0000093034600224FF400112046FFF789FFA5
:1035F0000028E3D0226852E8003F23F0800342E82D
:1036000000310029F6D12023E367002384F87830C5
:103610000320E1E76FF07E4300932B4600224FF436
:1036200080012046FFF76DFF0028CCD0226852E8C9
:10363000003F23F4907342E800310029F6D122685C
:1036400002F1080353E8003F23F00103083242E887
:1036500000310029F3D12023C4F88030002384F8FE
:1036600078300320B8E768B310B50446C36F03B3DE
:103670002423E3672268136823F001031360636A5D
:10368000E3B92046FFF726FE012811D022685368CF
:1036900023F4904353602268936823F02A039360D5
:1036A0002268136843F0010313602046FFF778FF98
:1036B00010BD80F87830FDF793FDD9E72046FFF77D
:1036C000BBFEDEE701207047034AD2F8883043F49E
:1036D0007003C2F88830704700ED00E0054B00220F
:1036E0005A701A844FF47A7159849A84DA84642265
:1036F0001A857047B003002008B50146014800F064
:103700006DF908BDB003002008B50268034B9A426A
:1037100000D008BD024800F087FAFAE70010004028
:10372000B003002072B6FEE710B596B00CAC2822AC
:103730000021204602F02EFC0023079308930993F2
:103740000A930B93019302930393049305930693B7
:1037500002230C93012210921022119213934FF422
:10376000601315932046FEF7C9F9C8B90F230793D4
:1037700002210891002309934FF480620A920B936F
:1037800007A8FEF7FDFC68B941F20103019300238D
:103790000393069301A8FEF7F9FD28B916B010BDF2
:1037A000FFF7C0FFFFF7BEFFFFF7BCFF08B5FEF74E
:1037B0006DF9FFF7B9FFFDF7FDFAFDF767FBFDF7C0
:1037C000C1FBFDF7A9FCFDF7F3FBFDF7EDFC03489A
:1037D00000F084F8014800F01FF9FBE7B003002077
:1037E00008B5FFF77BFF08BD70470000054B064A90
:1037F0001A6000221A715A719A71DA711A72034AA8
:103800001A607047DC030020787D0008847D000882
:10381000F8B504460F4616461D46082B10D8A76675
:10382000002363672367A56784F87C3004F1800375
:10383000324604F168010548FDF791FE18B9F8BD5C
:10384000FFF770FFEBE7FFF76DFFF8E718020020C6
:1038500038B50446002343628362C36203630122D6
:1038600002648363C3630E2383644264064D284667
:10387000FDF747FE04F124012846FDF7BFFD0221B4
:103880002846FDF796FF38BD1802002038B50546DA
:1038900020211148FEF71EFF044600B1012410212B
:1038A0000D48FEF717FF10B144F00204E4B20821FE
:1038B0000948FEF70FFF10B144F00404E4B24FF4DE
:1038C00000414FF09040FEF705FF10B144F00804AE
:1038D000E4B22C7038BD00BF0004004810B50446A7
:1038E000012280214FF09040FEF7FBFE2046FFF7BB
:1038F000CDFF237803480371FFF7AAFF0248FFF7C3
:103900008FF810BDDC0300204002002030B585B0E8
:1039100004460846154603AB00930DF10D030DF167
:103920000E020DF10F0100F092FA9DF80E30012BFE
:1039300015D122799DF80D309A4210D19DF80C30A6
:10394000032B0CD8DFE803F0070D151AE95CE21829
:1039500091720133DBB2072BF8D90123637105B0F3
:1039600030BD6A782B7843EA022363820123A37176
:10397000F5E72B7823750123E371F0E72A79EB78DB
:103980001B0443EA0263AA7843EA02236A781343DA
:103990002A7807EE903AF8EEE77A931D04EB83035A
:1039A000C3ED007A01232372D9E738B504460846EF
:1039B00004F184052B4604F14C020021FDF744FE7E
:1039C00040B994F85C302A46B4F84C102046FFF712
:1039D0009DFF38BDFFF7A6FEF3E7000008B50248DB
:1039E000FFF7E3FF08BD00BFDC03002030B583B064
:1039F00004468DF8071003681D680223027901212F
:103A0000084600F015FA014601230DF10702204691
:103A1000A84703B030BD000030B583B004464378FA
:103A2000002B40D0724B9B79002B53D1038C013378
:103A30000384228C638C9A427CD2D4ED057AF5EE15
:103A4000407AF1EE10FA03D0B4F90A30002B49D1D4
:103A5000684800F050F9B4F90A30A3812279B4F92A
:103A60000C10644800F024F9A081002854D00122F1
:103A700040214FF09040FEF734FEB4F90C30002B9B
:103A800051DB002220214FF09040FEF72AFE628891
:103A9000B4F90A10574800F04DF9E38C228D934297
:103AA00052D80133E384524B5B79002B58D1504BF1
:103AB0001B7A002B79D1257C4FF480614FF0904028
:103AC000FEF708FE854240F087806079FEF702F835
:103AD00003B030BD464AB2F91230438100239371DE
:103AE0000384A6E7B4F90E2000EE902AF8EEE00A6F
:103AF00007EE903AB8EEE70A3E4800F04DF96388C9
:103B000007EE903AF8EE677A67EE807AFDEEE77A94
:103B100017EE903AA381A1E7002240214FF0904098
:103B2000FEF7DFFDA9E7012220214FF09040FEF7CC
:103B3000D8FDACE72F4D62880021284600F0FAF846
:103B4000284600F0D8F8A8E7217C2948FFF74EFF67
:103B500010214FF09040FEF7C9FD0023E384A2E757
:103B6000234A6B46D2F80A00D2F80E1003C36B4604
:103B700003CBC4F80200C4F806101E4D6179284634
:103B800000F06EF80121284600F0B9F8284600F050
:103B900087F8284600F0AFF8002280214FF09040CF
:103BA000FEF79FFD0123637081E7114B93ED060A39
:103BB00084ED050AD3ED070AC4ED060A93ED081A51
:103BC00084ED071A00221A720A4D284600F08CF87C
:103BD000284600F090F86EE74FF480614FF0904077
:103BE000FEF778FD014620740148FFF7FFFE6CE701
:103BF000DC0300200C00002030B583B004468DF8B3
:103C00000410C1F307218DF8051003681D68012316
:103C100002791946184600F00BF90146022301AA61
:103C20002046A84703B030BD10B50446838C827986
:103C3000934202D80133838410BD054800F030F868
:103C40000146E0810348FFF7D7FF0023A384F3E791
:103C50000C000020DC03002008B5FFF7C7FD08BDFD
:103C600010B501760C4C04212046FFF7C7F9082156
:103C70002046FFF7C3F9012208214FF09040FEF7DC
:103C800030FD012204214FF09040FEF72AFD3C2137
:103C90000248FFF751FA10BD8C020020D802002024
:103CA000024B586A00225A6200B27047002C014051
:103CB0000346084611B900229A82704700B5B3F84E
:103CC00014C0A1EB0C0109B2C2F1000E714506DA75
:103CD000ACEB020C0FFA8CF098825DF804FB914279
:103CE000FADD624410B2F7E780ED000AC0ED010A88
:103CF00080ED021A70470023C3600361704708B566
:103D000031B1012204214FF09040FEF7EAFC08BDDA
:103D1000002204214FF09040FEF7E3FCF7E79142C8
:103D200003DB994203DD184670471046704708468A
:103D30007047000038B513465242FFF7F0FF05B256
:103D4000002D0CDB012208214FF09040FEF7C9FC4A
:103D5000084B1B689D634FF44862DA6338BD044624
:103D6000002208214FF09040FEF7BBFC644225B2D0
:103D7000EEE700BF8C020020B4EEE00AF1EE10FA8C
:103D800007D4B4EEC10AF1EE10FA04DDB0EE410A38
:103D90007047B0EE600A704710B52DED028B0446F7
:103DA000B5EE400AF1EE10FA38D0B0EE408AF0EEEF
:103DB000608AC38A01EE103AB8EE411AF1EE410A68
:103DC00090ED030AFFF7D8FF84ED030A78EE680A46
:103DD000237E07EE103AB8EE477A67EE207A70EE4F
:103DE000277AC4ED037AD4ED046A70EEE66A86EEB3
:103DF000876AC4ED040A94ED000A20EE200A94EDCF
:103E0000017A67EE877A30EE270AD4ED027A67EE00
:103E1000867A30EE270ABDEC028B10BD9FED030AB7
:103E200080ED030A80ED040AF5E700BF0000000002
:103E3000800200F48060C90101F460710843D2007F
:103E400002F07802104303F0070318437047C0F3F1
:103E5000802C81F800C0C0F3C2111170C0F3C302FE
:103E60001A7000F00700009B18707047DFF834D01C
:103E7000FFF72AFC0C480D490D4A002302E0D458F4
:103E8000C4500433C4188C42F9D30A4A0A4C0023A4
:103E900001E013600432A242FBD302F027F9FFF7DE
:103EA00085FCFEE70030002000000020FC0100201F
:103EB00074830008FC01002058060020FEE7000083
:103EC00003685A004CBF43F0004323F000431844FA
:103ED000704700BF2DE9F04759B301F1FF3805469F
:103EE000164647464FF0000A0AEB070101EBD17175
:103EF000491005EBC1094846FFF7E2FF88454FEA44
:103F0000C104034610D004F10800B342284407D886
:103F1000FFF7D6FF0138B04208D201F1010AE3E70A
:103F20008A4506D04F1EDFE7B042F9D84846BDE8C3
:103F3000F0874FF000094846BDE8F087012806D019
:103F4000022802D028B90448704704487047044842
:103F500070470020704700BF2D4600083D4600080E
:103F60003546000830B5224B83B004468D1E43B35E
:103F700001A92846AFF30080F0B101992A46FFF766
:103F8000A9FF0146C0B1FFF79BFF4B68A064012B5E
:103F90002BD0002B01F1040025DBFFF791FF00235C
:103FA00023650368E064002B12DBFFF789FF0346FB
:103FB0000020236103B030BD00230920236103B03A
:103FC00030BD0C4B0C49C91AC91018460191D5E7F0
:103FD000C3F30360FFF7B2FF031E0CBF09200020EC
:103FE000236103B030BD0123DAE700230520E0E7B9
:103FF000000000002C820008648300080368DA07D0
:1040000010B5044606D49B0700F1500009D5FCF713
:10401000D3F82368590709D51A070ED5DB0613D53F
:1040200010BDFCF7C1F823685907F5D404F1D80096
:10403000FCF7CAF823681A07F0D404F5AC70FCF753
:10404000CBF82368DB06EBD404F5EC70BDE8104038
:10405000FCF706B90346006800B11844704700BF7A
:10406000704700BF70B504460E46316C2046FFF71E
:1040700079FF054688B9326C626123693246214670
:10408000012098470828F0D0072806D12846316C2F
:10409000FFF7E6FF301DFCF77BF801F057F900BF92
:1040A0002DE9F04F0D1DD0F80C90D0F818A0074660
:1040B00014460FCDADF5777D0DF10C0CACE80F007B
:1040C0000FCDACE80F000FCDACE80F0095E80F0066
:1040D00002AE4FF0000E8CE80F000DF5F878C6F830
:1040E00000E021E0336C7B614FF4F47231464046CE
:1040F00002F023F83B694246394658469847D8F8BB
:104100003830B3642146CDE9006A05463B460120BC
:104110003A46C847044618BB4FF4F472414630464D
:1041200002F00BF8082D19D1316C3846FFF71AFF51
:10413000093405465FFA84FB0028D3D0B36BB3641F
:104140003A46CDE9006A3B464BF010010120C847D2
:1041500030B928460DF5777DBDE8F08F072D05D0E5
:10416000092528460DF5777DBDE8F08F2046316C96
:10417000FFF776FF03A8FCF70BF800BFF0B5CB6B99
:10418000FBB001F1040C0B640F460546BCE80F00C0
:1041900001AC0FC4BCE80F000FC4BCE80F000FC493
:1041A0009CE80F004FF0FF3E84E80F006E46CDF80C
:1041B00000E006E02B693246294698470828044665
:1041C00008D1316C2846FFF7CDFE0028F2D0092037
:1041D0007BB0F0BD3046FFF711FF062CF7D1394612
:1041E0002846FFF73FFF00BFC160D96B82611964A9
:1041F00000221946FFF754BF70B5C66843690B64C7
:10420000AEB903690A4604460D46014602209847A6
:10421000072805D008280FD129462046FFF722FF9E
:104220003046296CFFF71CFF281DFBF7B1FF012268
:10423000FFF736FF01F08AF801F088F8C26808B588
:1042400032B1CA6B0A64BDE808400022FFF728BFFC
:10425000FFF794FF092008BD052915D8DFE801F014
:104260000A031403030501207047009A436C13608E
:104270000020704743B90F2A06D800EB82020020C5
:104280005368009A136070470220704700B585B0EC
:104290000A46002303A900911946FFF7DDFF0398A2
:1042A00005B05DF804FB00BF052915D8DFE801F073
:1042B0000A031403030501207047009B1B68436435
:1042C0000020704743B90F2A06D8009B00EB8202FA
:1042D0001B685360002070470220704710B584B0FF
:1042E000002303AC039200940A461946FFF7DCFF53
:1042F00004B010BD2DE9F041D36BADF5107D02F196
:10430000040C136407460E46BCE80F000DF15C0E6A
:10431000AEE80F00BCE80F00AEE80F00BCE80F00ED
:10432000AEE80F009CE80F0016AC4FF0FF388EE8A7
:104330000F006D46C4F8008010E0FFF7CFFF314654
:104340002046B847034622460820294683B92B69F0
:104350009847052880460DD0092809D0216C2846A9
:10436000FFF700FE03460C212A462046002BE4D02E
:104370004FF009082046FFF741FE40460DF5107D3D
:10438000BDE8F0812DE9F04F1646CA6C89B00D46A4
:1043900052F8041B069200F0030CE3B10C0C8DF8EC
:1043A0001D400904E4B2059102EB840202218DF85C
:1043B0001C10296DBCF1020F08BFAA6B11F0010897
:1043C0000FD005A9304600F0CFFA002839D10820D7
:1043D00009B0BDE8F08F090205918DF81D30032169
:1043E000E5E71768002FECD000F008010191E346E3
:1043F000CDF808809A46BAF1020F26D01788548863
:1044000002F10409AA6C24F001030F21304603EBEA
:104410000208FFF73BFF804515D827F0010202EBA9
:104420000803834294BF00230123640004F00204C4
:1044300007F001072743012F0BD0022F50D0002F88
:1044400045D00920C4E70023EFE7546802F10809CA
:10445000D8E7BBF1000F73D1CBB1D9F80430D9F84C
:104460000020991C4FEAD272EBD005F158040133B9
:10447000049400F0CC8009F10400FFF7EBFD04ABDD
:1044800001462846AFF30080002840F0978009F1EC
:1044900008021768002FAED105A93046DDF8088064
:1044A00000F062FA0028CCD1B8F1000F8FD00F21B4
:1044B0003046FFF7EBFE0E2102463046FFF70EFFB7
:1044C000594A0F213046FFF709FF072080E7BBF16B
:1044D000000F02D0002B40F0878009F10402D8E7DA
:1044E000D9F8004024F00048BBF1000F0FD12BB1E8
:1044F000019B002B3CD0B8F1000F39D0002C01DA21
:1045000009F1040908F1010209EB8202C1E70D215A
:104510003046FFF7BBFE2F6A8742EFD1AB6A994561
:10452000ECD100240423C5E90B434B44C5F8288093
:104530006B63D9F80030A34270DB01230293E1E7FB
:104540000D213046FFF7A2FE2C6A84429FD1AB6A50
:1045500099459CD14846FFF7B3FC0F2102463046EF
:10456000FFF7BCFE2A4600213046FFF7B7FEACE756
:1045700005F15803CDF80CB009F10407B346002447
:104580001E460BE038460496FFF764FD0022014604
:1045900004AB2846AFF300800437F8B9444504F172
:1045A0000104EFD10D215846FFF770FE049BC5F8BA
:1045B00028900246C5E90823062009E704460D2194
:1045C0003046FFF763FE049E2862022C04BFEE62B1
:1045D00005F12C06C5E909690620F9E65E46D9F819
:1045E0000040DDF80CB089E74846FFF769FC09F1A7
:1045F00004030446AB632846AFF3008000283FF471
:1046000020AF22460F213046FFF768FE5DE73046B7
:104610000D21FFF73BFE26462862DBE708F1010289
:1046200009EB820097E700BF000000000023FFF7BE
:10463000A9BE00BF0123FFF7A5BE00BF0223FFF7FD
:10464000A1BE00BF2DE9F0410646C4B014460529BD
:1046500008D8DFE801F016300773980B3A19102AD2
:1046600040F2B780022044B0BDE8F081836B002C9B
:10467000F8D153F8042B42648363002044B0BDE8B2
:10468000F081002BEED1856B1FFA84FC012006F12E
:10469000040E00FA03F111EA0C0F2A4604D052F876
:1046A000041B4EF8231015460133102BF1D1A00442
:1046B000E3D4B563E1E7012B4FEA1447A4B2CDD0B0
:1046C000052BCFD107EB0408B8F1200FCAD80F2F64
:1046D00040F2BD80002CD0D002685107A04600F106
:1046E0001B81019302AC2046FBF772FDD6F838C05F
:1046F000019B102F4FF0FF3239464FF0020E38BFAA
:10470000102118FB0E2E04EBC1018439724660465D
:1047100050F8045B41F8045F013A551CF8D10CF1E4
:10472000040C012B0CEB8E0200F0D5800F2FB2632E
:1047300040F2FA802046FBF747FD9EE7032B91D11C
:10474000A7B207EB1443102B4FEA14448AD803682E
:10475000190700F1A38022AD2846FBF75FFD7A0020
:10476000B06B05EBC404531E42B1011B625844F800
:10477000042B013B5A1CF9D100EBC700B06328465B
:10478000FBF72AFD79E7002B7FF46CAF102C3FF686
:1047900069AF0368D80679D422AD2846FBF76AFDD5
:1047A000B76B294600234FF0010C0CFA03F22242AA
:1047B000384603F1010303D050F8042B0A60074682
:1047C000042B01F10401F0D1B7632846FBF748FD43
:1047D00053E7102F3FF446AF0268D10708D53046A3
:1047E00022F0030240F8502B0193FBF7E1FC019B00
:1047F000019322AD2846FBF7DBFCD6F838C0002C2D
:104800006BD0019B4FF0000802214FF0FF3214FBE8
:10481000012E05EBC70104397246604650F8044B7F
:1048200041F8044F013A541CF8D10CF1040C0CEB84
:104830008E0CB8F1000F39D1012B4ED00F2FC6F8D6
:1048400038C03FF61AAF2846FBF7B6FC15E70268FA
:10485000B8F1100F02F001012AD851B1304622F010
:10486000010242F0020240F8502B0193FBF7A8FC32
:10487000019B019322AD2846FBF7A2FC019B002C73
:10488000E1D0D6F838C04FF00008BDE723F01003A0
:10489000336006F5EC70FBF7EDFC7DE723F00803D1
:1048A000036000F5AC70FBF7B9FC54E702AC20E7FD
:1048B000D1B9550726D422AD28460193FBF780FCD9
:1048C00002A8FBF785FCA8F11008D6F838C0019BB8
:1048D000C7F1100498E7944622AD0CF10403B363CA
:1048E0002846FBF761FCC8E622F0010242F0020212
:1048F00040F8502B0193FBF763FC3268019B12F0E8
:10490000040FD8D0304622F0040240F8D82B01938F
:10491000FBF75EFC019BCEE722F0040240F8D82BA7
:104920000193FBF755FCDDE622A8FBF745FC01E708
:10493000027A03467AB9427AA2B14168013A10B4C8
:104940004272086803220C1D1A7202025C60000E9B
:1049500010BC1A6070470068013A1A7202021A60AD
:10496000000E7047B02070472DE9F043064685B031
:104970000D4600272846FFF7DBFFB028044600F06D
:10498000218103065ED500F0F003A02B1DD033D8A3
:10499000802B00F08780902B2AD100F00D030D2B87
:1049A00026D00DF10808002300F00F021946CDF8BB
:1049B00000803046FFF750FC0023CDF800800D2228
:1049C00019463046FFF770FCD4E7C34303F00703F2
:1049D0004FF47F621A41010702F47F6201D542F46D
:1049E0008042002319463046FFF72CFE0028C1D034
:1049F000092005B0BDE8F083B02B68D0C02B3FD1B3
:104A0000C62800F0CC80C72800F0DF8000F0F80353
:104A1000C02B00F0EC80C82800F0F780C928E7D14F
:104A20002846FFF785FF020300F00F0002F4702212
:104A300001300243012105233046FFF703FE002821
:104A400098D0D5E78300DBB203F104080DF1080923
:104A500000231946CDF800900D223046FFF7FCFBED
:104A6000029ACDF8009060064CBFA2EB08024244C7
:104A70000023029219460D223046FFF715FC79E714
:104A800000F0F803D02BB3D100F007020132052368
:104A900042F4002201213046FFF7D4FD00283FF404
:104AA00069AFA5E72846FFF743FF24022043B0F58E
:104AB000004F9DD004010023A2B219463046FFF7F3
:104AC000C1FD002894D1C4F3C030074352E7A0F1E0
:104AD000B103042B00F2B580DFE803F05729160C70
:104AE000030003AA0023009219460D223046FFF767
:104AF000B3FB3FE700231A4605213046FFF7A2FD2E
:104B000000283FF437AF73E72846FFF711FF020391
:104B100000F00F00013002F4702201230243194615
:104B20003046FFF78FFD00283FF424AF60E70023F5
:104B30000DF108090D221946CDF800903046FFF717
:104B40008BFB2846FFF7F4FE0206029C4FF002089A
:104B50000CD500F07F0000FA08F0044428460294C7
:104B6000FFF7E6FE030608F10708F2D400FA08F0A2
:104B700004F50174204400230290CDF800900D222A
:104B800019463046FFF790FBF4E62846FFF7D0FEC3
:104B9000431EDBB20E2B02467FF623AF28E72846E2
:104BA000FFF7C6FE020300F00F00013002F470228E
:104BB0000323024319463046FFF744FD00283FF423
:104BC000D9AE15E76FB3002013E72846FFF7B0FE14
:104BD000431EDBB20E2B02463FF60AAF0023042130
:104BE0003046FFF72FFD00283FF4C4AE00E700F089
:104BF0000F020132032342F4202219463046FFF708
:104C000021FD00283FF4B6AEF2E62846FFF790FEFD
:104C100000F0F00200F00F031032013343EA0232D9
:104C200008E702AC3B46394600940E223046FFF7B7
:104C300013FB0F2200943B4639463046FFF734FB06
:104C4000C1E700F0FC03B42B3FF4D2AE00F0070242
:104C50000132012342F4002219463046FFF7F2FCEC
:104C600000283FF487AEC3E60A4B10B50446186827
:104C700018B1036A0BB901F013F9132C07D80648D1
:104C800050F83420013202D000EBC40010BD0020E7
:104C9000FCE700BF400000206C040020F8B504468B
:104CA00001F01EFA13260546002730463946ABBEF2
:104CB00006462E602046F8BD431C01D1FFF7EEBF2B
:104CC000704730B585B0CDE901010392062401ADEE
:104CD00020462946ABBE04462046FFF7EDFF05B04F
:104CE00030BD70B50E461446FFF7BEFF054630B91D
:104CF00001F0F6F9092303604FF0FF3070BD006842
:104D000022463146FFF7DDFF431CF5D06B68201AC1
:104D100003446B60F2E7F7B50C461646FFF7A4FFB5
:104D2000054640B901F0DCF9092303604FF0FF3478
:104D3000204603B0F0BD022E03D901F0D1F91623AD
:104D4000F3E7012E12D14368E418F6D42B680A2643
:104D5000CDE900346F4630463946ABBE0646304694
:104D6000FFF7AAFF0028E1DB6C60E1E7022EEDD13E
:104D7000036800930C266F4630463946ABBE0646A4
:104D80003046FFF799FF431CD0D00444DEE7FFF71D
:104D9000C2BF30B585B0CDE901010392052401AD54
:104DA00020462946ABBE04462046FFF785FF05B0E6
:104DB00030BD70B50E461546FFF756FF044630B9B4
:104DC00001F08EF9092303604FF0FF3070BD0068D9
:104DD0002A463146FFF7DDFF031EF5DB6268E81A5D
:104DE0000244AB426260F1D1BDE870400020FFF7A1
:104DF00055BF37B50224019001AD20462946ABBE10
:104E000004462046FFF758FF03B030BD38B50546CD
:104E1000FFF72AFF044630B901F062F90923036065
:104E20004FF0FF3038BD013D012D09D8094B9A687C
:104E30001B699A4204D14FF0FF3303600020F1E771
:104E40002068FFF7D6FF0028ECD14FF0FF33236036
:104E5000E8E700BF6C040020012070470D4A0346BC
:104E6000106810B508B90C481060034469468B42BD
:104E700006D80A490A4C0968A14208D08B4206D9D3
:104E800001F02EF90C2303604FF0FF3010BD1360CA
:104E9000FCE700BF6804002058060020280000201E
:104EA000ADDEFECA70B50C46FFF7DEFE054630B932
:104EB00001F016F9092303604FF0FF3070BD6368FD
:104EC00043F4005363604FF48063A3640C263046C0
:104ED0002946ABBE05462846FFF7EEFE431CEBD045
:104EE00020610020EAE70B4610B500210446582255
:104EF000184601F04FF801462046BDE81040FFF784
:104F0000D1BF38B50D46044658220021284601F08D
:104F100041F82046002100F011F8431C04460BD054
:104F20006B6843F401436B602946FFF7BBFF0546FE
:104F30002046FFF76BFF2C46204638BD2DE9F04395
:104F4000DFF8A89097B007460E46002459F8343091
:104F500001334FEAC40833D00134142CF6D101F0E8
:104F6000BFF818233AE0C6F30045B20740F20163E8
:104F700048BF45F002051E4218BF45F0040533073F
:104F800048BF25F00405384648BF45F0080500979E
:104F9000FBF72EFACDE901506E4601252846314631
:104FA000ABBE0546002D06DBC844002349F834504B
:104FB000C8F8043015E02846FFF770FE044610E0FC
:104FC00006F42063B3F5206FCDD169463846FFF76C
:104FD00098FF0130C7D001F083F8112303604FF030
:104FE000FF34204617B0BDE8F08300BF6C040020FA
:104FF0002DE9F74306460F46294800211546FFF7DD
:105000009DFF2A4604460021304600F0C3FF631C82
:1050100014D02046FFF728FE4FF00C08814640468A
:105020004946ABBE80464046FFF746FE032802DDF8
:10503000C31EAB4207DC2046FFF7E8FE4FF0FF300F
:1050400003B0BDE8F08304220DEB02012046FFF718
:1050500048FE0328EFDD9DF80430532BEBD19DF87B
:105060000530482BE7D19DF80630462BE3D19DF85B
:105070000730422BDFD1012239462046FFF74BFE95
:105080000028D8DB2A4631462046FFF72AFE05468F
:105090002046FFF7BBFE2846FFF70EFED0E700BF15
:1050A000887D000837B50A4D0A4C0021012201A86D
:1050B00029602260FFF79CFF002807DD9DF804307F
:1050C00003F0010203F002032A60236003B030BD45
:1050D000300000202C00002010B5044C2368002B69
:1050E00001DAFFF7DFFF206810BD00BF30000020AD
:1050F00070B5FFF7B9FD0924054620B900F0F0FFAF
:105100000460002070BD20462946ABBE0446012C39
:105110002046F7D000F0E4FF132504460026284679
:105120003146ABBE05462560EBE77FB50024102372
:10513000CDE90234036815469E6912686B46CDE9D5
:105140000044B0479DF8043003F00603062B03BF6C
:10515000009B2B600120204604B070BD0098904257
:105160000CBF06200120704710B5034B03600446B6
:1051700000F0D1F8204610BD487F000810B5044665
:10518000FFF7F2FF2046082100F042F8204610BD4C
:105190002DE9F0411F46DDE90834DDF81880984517
:1051A0000646154607D1079900F0B8F818B16571A1
:1051B0000020BDE8F0813946304600F0AFF8002805
:1051C000F6D00123C4F800802571A371F0E738B54B
:1051D00015461C4600F0A2F820B10823E360062320
:1051E0002560237138BD2DE9F04105460C46164671
:1051F0001F4600F093F848B9032F07D823683246BA
:10520000294620465B69BDE8F0411847BDE8F081BA
:1052100000F09AB810B5034B03600446FFF7A4FFF3
:10522000204610BDA87F000810B50446FFF7F2FF26
:1052300020460C21FFF7ECFF204610BD2DE9F04180
:10524000DDF81880904506460F4615461C460BD0E3
:10525000B0680368CDF818801E6A2A46234639468E
:10526000B446BDE8F0416047194600F057F8002801
:10527000EED00620BDE8F0812DE9F14F0D4619462C
:10528000DDE90A4BDDE90CA681461746984600F099
:1052900045F890B1002D3460377109DB2C44A245EC
:1052A00014BF01240624B471002001B0BDE8F08FC2
:1052B0000235F9D10123B371F6E7544506D15946B9
:1052C000484600F02BF808B17771EDE7D9F80800EF
:1052D0000368CDE90CA6CDE90A4BDC693A464346A2
:1052E0002946A44601B0BDE8F04F60472DE9F041E2
:1052F00007460C4615461E46FFF769FF48B9B868D1
:1053000003689F692A4633462146BC46BDE8F04102
:105310006047BDE8F081704700207047814208B5C2
:105320000ED0406803782A2B0CD049680B782A2BC2
:1053300008BF0131FBF702F8B0FA80F0400908BD60
:105340000120FCE70020FAE700F010B808B50620BD
:1053500000F050FE012002F09BFC0000024B0146D1
:10536000186800F02DB800BF40000020024B014635
:10537000186801F059BD00BF4000002070B50F4E05
:105380000C463168054611B900F088FE30602146B0
:10539000284600F083FE431C03D14FF0FF34204623
:1053A00070BDC41C24F00304A042F8D0211A284682
:1053B00000F074FE0130F2D1EFE700BF0C050020D1
:1053C0002DE9F843CD1C25F0030508350C2D38BF19
:1053D0000C25002D064601DBA94204D90C233360BD
:1053E0000020BDE8F883DFF8D48000F069F8D8F831
:1053F00000301C4644BB29463046FFF7BFFF431C24
:10540000044658D1D8F800402746002F43D1002C3D
:105410004BD023683946304604EB030900F03EFECA
:10542000814542D121686D1A29463046FFF7A6FF13
:1054300001303AD023682B442360D8F800305A68F2
:1054400062BBC8F800700FE02268521B20D40B2A00
:1054500017D96119A342256018BF5960636808BF56
:10546000C8F8001062514B60304600F02FF804F18C
:105470000B00231D20F00700C21A1CBF1B1AA350EB
:10548000AFE76268A3420CBFC8F800205A60EBE7A0
:1054900023466468AEE73C467F68B6E71A465B6819
:1054A000A342FBD100235360DEE70C233360304678
:1054B00000F00CF894E70560D6E700BF1005002067
:1054C000014800F038BE00BF54060020014800F03B
:1054D00033BE00BF540600202DE9FF4757EC106B88
:1054E000002F0C4619463B46BBBF07F100431F4641
:1054F00000232D230B700D9BDDF830A0914623F087
:105500002008BCBF32461646B8F1460F05D0B8F1A8
:10551000450F00D10134022100E0032103AB0193C8
:1055200002AB009347EC106B5346224600F09CFE02
:10553000B8F1470F054619D119F0010F0ED000EB55
:1055400004090022002330463946FBF77DFB08B1F1
:10555000CDF80C903022039B4B451ED3039B0E9A33
:105560005B1B2846136004B0BDE8F087B8F1460F16
:1055700000EB0409E5D10378302B0AD10022002387
:1055800030463946FBF760FB18B9C4F10104CAF88C
:105590000040DAF800309944D3E7591C03911A709F
:1055A000D9E7F7B50029BABF49422D232B23092992
:1055B0000270437029DD0DF1070425460A272246B3
:1055C000B1FBF7F607FB1613303302F8013C0B462C
:1055D000632B04F1FF343146F1DC3031931E04F8C3
:1055E000011C411C1C46AB420AD30DF109039B1A56
:1055F000A54238BF0023821C1344181A03B0F0BD23
:1056000013F8016B01F8016FEDE73023303183703F
:10561000C170031DF1E700002DE9F04F8DB00C467D
:10562000DDF8588016461F46054600F0EBFC03687F
:1056300006931846FAF7DCFE00230A93D8F80030E8
:1056400094F818A0D4F800B00790073323F00703AC
:10565000B3EC027B8DED047BC8F80030DDE90483F8
:1056600023F0004984ED127B9C4B4FF0FF32404603
:105670004946FBF71BFB70BB984B4FF0FF3240468F
:105680004946FBF7F5FA30BBDDE9040100220023AF
:10569000FBF7E4FA10B12D2384F84330904A914B84
:1056A000BAF1470F8CBF90469846032323612BF035
:1056B000040323604FF00009009733460BAA2146EC
:1056C000284600F0D1F9013040F08C804FF0FF30D7
:1056D0000DB0BDE8F08FDDE9042310461946FBF755
:1056E000E5FA40B1059B804A002BBCBF2D2384F80E
:1056F00043307E4BD4E763685A1C0AF0DF093BD184
:10570000062363604BF480620023226003930AAB9C
:10571000CDE901A309AB009361689DED040B0DF188
:1057200023032846FFF7D8FEB9F1470F09998046B1
:1057300029D1C81C02DB63688B4241DAAAF1020A54
:105740005FFA8AFA0139524604F150000991FFF7D5
:1057500028FF0A9A1318012A8146236102DC226875
:10576000D20701D5013323619DF82330002BA3D04C
:105770002D2384F843309FE7B9F1470FC2D1002BA6
:10578000C0D10123BDE7BAF1650FDBD9BAF1660FCD
:1057900018D1002963680BDD216113B92268D00795
:1057A00002D501330B442361A1654FF00009DBE70B
:1057B00013B92268D20701D50233F4E70123F2E7D7
:1057C0004FF0670A0A9B8B4205DC23682161D807EA
:1057D000EAD54B1CE7E70029D4BFC1F10202012240
:1057E0001344E0E723685A0507D42369424631464B
:1057F0002846B84701302BD168E7BAF1650F40F26F
:10580000DD80D4E9120100220023FBF71DFA0028F5
:1058100033D0374A012331462846B84701303FF498
:1058200055AFDDE90938434502DB2368D8070FD5BA
:10583000DDE9062331462846B84701303FF446AF3C
:105840004FF0000908F1FF3804F11A0AC84509DCD5
:1058500023689B0700F10381E0680B9B9842B8BF67
:10586000184635E70123524631462846B8470130ED
:105870003FF42CAF09F10109E8E7099B002B39DC63
:105880001B4A012331462846B84701303FF41EAF7A
:10589000DDE9093959EA030302D12368D907D7D5CD
:1058A000DDE9062331462846B84701303FF40EAF04
:1058B0004FF0000A04F11A0B099B5B42534501DCCF
:1058C0004B4693E701235A4631462846B8470130F4
:1058D0003FF4FCAE0AF1010AEEE700BFFFFFEF7FE5
:1058E000A27D00089E7D0008AA7D0008A67D000814
:1058F000AE7D0008A36DDDF828A05345A8BF534630
:10590000002B994636DC4FF0000B29EAE97904F1C7
:105910001A02A36D0493A3EB09035B4531DC099BD9
:105920009A453ADC2368DA0737D4099BAAEB0309C6
:10593000049BAAEB03039945A8BF9946B9F1000F50
:1059400033DC4FF0000829EAE97904F11A0B099BCE
:10595000AAEB0303A3EB090343457FF779AF0123C8
:105960005A4631462846B84701303FF4AFAE08F1F9
:105970000108ECE7424631462846B8470130C2D11B
:10598000A4E60123314628460492B84701303FF48B
:105990009DAE049A0BF1010BBBE7DDE9062331460E
:1059A0002846B8470130C0D190E6049A4B4642449D
:1059B00031462846B8470130C3D187E6DDF828A034
:1059C000BAF1010F01DCDB0736D50123424631462F
:1059D0002846B84701303FF479AEDDE90623314669
:1059E0002846B84701303FF471AED4E912010022D5
:1059F00000230AF1FF3AFBF727F9C0B9534608F133
:105A0000010231462846B84701300CD15EE6012339
:105A10005A4631462846B84701303FF457AE08F1A0
:105A20000108D045F3DB4B4604F15002DFE64FF0AE
:105A3000000804F11A0BF4E701234246E1E70123D1
:105A40004A4631462846B84701303FF43FAE08F198
:105A50000108E3680B995B1A4345F0DCFCE64FF064
:105A6000000804F11909F4E72DE9F04716469846B5
:105A70008A680B69DDF820909342B8BF1346336003
:105A800091F8432007460C460AB10133336023687E
:105A9000990642BF336802333360256815F0060566
:105AA00006D104F1190AE36832689B1AAB4226DC7E
:105AB00094F843302268003B18BF012392062BD490
:105AC00004F1430241463846C84701301ED02368DE
:105AD000226903F00603042B02BFE5683368ED1A60
